:02000000932B40
:06000600000000000800EC
:0E000C00213083120313FD00FD0B0A280800AB
:10001A000F3083120313FC004730FD00FD0B132839
:0A002A00FC0B132800000000080082
:1000340083120317C91B2028861221288616491B00
:100044002528061226280616C91A2A2886112B28BE
:100054008615491A2F280611302806154118342808
:10006400061435280610861403208610C9193C2866
:1000740086123D288616491941280612422806167A
:10008400C918462886114728861549184B28061191
:100094004C280615411850280614512806108614B9
:1000A40003208610411C58280D20592806200800DA
:1000B4006C28803083120317C6007F28C030C60026
:1000C4007F289430C6007F28D430C6007F28803033
:1000D400C6007F28831203174608013A03195B28D8
:1000E4004608023A031960284608033A03196328AC
:1000F4004608043A0319662869284703F0004608AD
:10010400F0077008C60041147008C9001A200317CC
:0E01140041104808C9001A20031741140800C2
:100122008312031741104608C9001A20031741140D
:020132000800C3
:10013400023083120317C6000130C7002030C80004
:100144005A200230C6000230C7002030C8005A20AE
:100154000230C6000330C7002030C8005A200230E5
:10016400C6000430C7002030C8005A200230C60040
:100174000530C7002030C8005A200230C6000630BF
:10018400C7002030C8005A200230C6000730C7001C
:100194002030C8005A200230C6000830C700203082
:1001A400C8005A200230C6000930C7002030C800F9
:1001B4005A200230C6000A30C7002030C8005A2036
:1001C4000230C6000B30C7002030C8005A2002306D
:1001D400C6000C30C7002030C8005A200230C600C8
:1001E4000D30C7002030C8005A200230C6000E303F
:1001F400C7002030C8005A200230C6000F30C700A4
:100204002030C8005A200230C6001030C700203009
:06021400C8005A2008009A
:10021A001F29803083120317C2003229C030C2005E
:10022A0032299430C2003229D430C20032298030B7
:10023A00C2003229831203174208013A03190E2910
:10024A004208023A031913294208033A03191629E4
:10025A004208043A031919291C294303F0004208E9
:10026A00F0077008C2007008C9001A20031741106D
:10027A00C501450844078400000803194C294508AC
:10028A00440784000008C6009120C50A3E2941148B
:02029A0008005A
:10029C00013083120317C9001A2001300317C20062
:1002AC000130C3004430C4000D219A200230C2003A
:1002BC000530C3000330F20003135308F000540858
:1002CC00F100720803196F29F00DF10D7010FF3E4B
:0E02DC0068297008243E0317C4000D21080095
:0E02EA00831203136F088A006E08820008005A
:1002F800013083120317C9001A2001300317C20006
:100308000130C3003130C4000D210230C200013079
:10031800C3002030C4000D210230C2000130C300E8
:100328000330F20003132008F0002108F1007208DE
:100338000319A329F00DF10D7010FF3E9C297008D8
:0A034800BC3E0317C4000D2108009D
:0E03520083120313051206138613851208008A
:10036000A92101300317C9001A2000302106031DFE
:10037000BB2900302006031DC62901300317C20027
:100380000130C300AE30C4000D21E029003003135A
:100390002106031DCD2901302006031DD829013077
:1003A0000317C2000130C300A030C4000D21E029B2
:1003B00003170130C2000130C300E230C4000D2138
:1003C0000230C2000130C3000330F20003135308AF
:1003D000F0005408F10072080319F329F00DF10D33
:1003E0007010FF3EEC297008243E0317C4000D2155
:1003F000003003135406031DFF2900305306031D6C
:10040000032A0516202A00305406031D092A01304C
:100410005306031D0D2A0617202A00305406031D1B
:10042000132A02305306031D172A8617202A00308C
:100430005406031D1D2A03305306031D202A85166A
:1004400000302106031D262A00302006031D362A0F
:100450001F30FB007130FC001E30FD00FD0B2E2A0A
:10046000FC0B2E2AFB0B2E2A00005B2A00302106F3
:10047000031D3C2A01302006031D4D2A3330FB00AA
:10048000BB30FC00DF30FD00FD0B442AFC0B442A8E
:10049000FB0B442A000000005B2A4830FB000630BA
:1004A000FC009F30FD00FD0B532AFC0B532AFB0B75
:1004B000532A00000000A92101300317C9001A20A7
:1004C00001300317C2000130C300D430C4000D2135
:1004D0001530FB004B30FC00BE30FD00FD0B6E2ADA
:0C04E000FC0B6E2AFB0B6E2A00000800CB
:1004EC0083120313A001A1017C210313051DA12A72
:1004FC000330FB000830FC007730FD00FD0B842A34
:10050C00FC0B842AFB0B842A051DA12AA00A0319C3
:10051C00A10A8030F000803021067002031D982A59
:10052C002008023C03189C2AA001A1017C21031382
:10053C00051DA12A9D2A851DB52A0330FB00083014
:10054C00FC007730FD00FD0BA92AFC0BA92AFB0B44
:10055C00A92A851DB52A851DB42AB12AB62A7B2A5B
:10056C0000302106031DBC2A00302006031DC32ABF
:10057C00B830A2000B30A300D42A00302106031D92
:10058C00C92A01302006031DD02A8830A20013305E
:0E059C00A300D42A5830A2001B30A300080090
:1005AA0083120313D301D4014E210313051C002B1C
:1005BA000330FB000830FC007730FD00FD0BE32A16
:1005CA00FC0BE32AFB0BE32A051C002BD30A0319B5
:1005DA00D40A8030F000803054067002031DF72AD6
:1005EA005308033C0318FB2AD301D4014E210313F9
:1005FA00051C002BFC2A851C142B0330FB00083039
:10060A00FC007730FD00FD0B082BFC0B082BFB0BC5
:10061A00082B851C142B851C132B102B152BDA2A5F
:02062A000800C6
:10062C008316031386100610061186110612861205
:10063C0083128610061086120612861106110D20E2
:10064C000D200D20861506158614032086100D200E
:10065C008614032086100D208614032086100D208E
:10066C0006118614032086100D2086140320861094
:10067C00861186168614032086100D208612061508
:10068C0086140320861006118614032086100D2074
:10069C0086140320861006158614032086100D2060
:1006AC000611861403208610861606168615061566
:0E06BC008614032086100D2003174114080039
:1006CA0075218A110A128000840AEE0A0319EF0AB8
:0806DA00F003031D652B08006D
:1006E200013083120317C9001A2001300317C20018
:1006F2000130C3005530C4000D210230C200013068
:10070200C3006330C4000D211F30FB007130FC00B8
:100712001E30FD00FD0B8B2BFC0B8B2BFB0B8B2B55
:0407220000000800CB
:1007260094240730831203139F000F30831685002D
:10073600860183128501860116230C30C9001A2012
:1007460071230330FB000830FC007730FD00FD0B01
:10075600AA2BFC0BAA2BFB0BAA2BD5220330FB00E2
:100766000830FC007730FD00FD0BB72BFC0BB72BD8
:10077600FB0BB72B76220430FB000C30FC00333029
:10078600FD00FD0BC42BFC0BC42BFB0BC42B000084
:080796000000B021A32BCE2BC3
:1009280020308400433083120313F0002430EE009B
:100938000430EF006523A030840050308312F000AB
:10094800D430EE000330EF00652320308317840095
:1009580011308312F0006730EE000430EF00652399
:100968008313633084000B308312F0008830EE006C
:100978000430EF0065233130831784001030831270
:10098800F0007830EE000430EF0065238313080090
:1007A80053344534523456342E3420344D34453481
:0C07B800443449344134203420340034EF
:1007C40053344534523456342E3420345034453462
:0C07D4005134553445344E344134003467
:1007E000503445345134553445344E34413400345A
:1007F0004D344534443449344134003400340034F9
:100800004734523441344E34443445340034003497
:10081000523445345434493452344534203442340B
:0C0820004534423449344434413400343F
:10082C0053344534523456342E34203447345234F5
:0C083C0041344E34443445342034003440
:040848000034003444
:04084C000034003440
:1008500042345234413448344D344134003400344D
:10086000503449344C34533445344E34003400341D
:10087000533454344F345534543400340034003439
:10088000573445344934533453340034003400343D
:100890004534533443344F344C3448344134203499
:0E08A000423445344234493444344134003447
:0408AE0000340034DE
:1008B2004D3441345134553449344E34413420346A
:0C08C200433448344F3450345034003478
:1008CE00203420342034203420342034203420347A
:1008DE00203420342034203420342034203420346A
:0208EE000034D4
:1008F000543441344D3441344E3448344F34203430
:100900002034203420342034203420342034003467
:10091000423445344D342D34563449344E34443405
:060920004F3421340034C5
:02400E006A2125
:00000001FF
